:020000040800F2
:10000000000004240907000849710008577100081E
:100010005F710008677100086F7100080000000040
:10002000000000000000000000000000317F010817
:10003000777100080000000081810108D96F010874
:100040005907000859070008590700085907000810
:100050005907000859070008590700085907000800
:10006000857100085907000859070008590700085A
:1000700059070008590700085907000859070008E0
:1000800059070008590700085907000859070008D0
:1000900059070008590700085907000859070008C0
:1000A00059070008590700085907000859070008B0
:1000B00059070008590700085907000859070008A0
:1000C0005907000859070008590700085907000890
:1000D0005907000859070008590700085907000880
:1000E0005907000859070008590700085907000870
:1000F0005907000859070008590700085907000860
:10010000590700085907000859070008590700084F
:100110005907000859070008957100085907000899
:10012000590700085907000859070008590700082F
:1001300059070008000000000000000059070008EF
:10014000590700085907000859070008590700080F
:1001500059070008590700085907000859070008FF
:1001600059070008590700085907000859070008EF
:1001700059070008590700085907000859070008DF
:1001800059070008590700085907000859070008CF
:1001900059070008590700085907000859070008BF
:1001A000A971000859070008BD7100085907000827
:1001B000D1710008590700085907000859070008BD
:1001C000590700085907000800000000000000005F
:1001D00000000000000000005907000800000000B7
:1001E000000000000000000000000000000000000F
:1001F000000000000000000059070008590700082F
:1002000059070008590700080000000059070008B6
:10021000590700085907000859070008590700083E
:1002200059070008E5710008F97100080000000096
:100230005907000859070008000000005907000886
:10024000590700085907000859070008590700080E
:1002500059070008590700085907000859070008FE
:1002600059070008590700085907000859070008EE
:100270005907000859070008590700080000000046
:100280005907000859070008000000005907000836
:100290000000000059070008590700085907000826
:0C02A0005907000859070008590700081A
:1002B00010B5054C237833B9044B13B10448AFF3A0
:1002C00000800123237010BD405D00240000000069
:1002D000B813030808B5034B1BB103490348AFF338
:1002E000008008BD00000000445D0024B81303082E
:1002F00001F0FF01102A2BDB10F0070F08D010F8D7
:10030000013B013A8B422DD010F0070F42B3F6D1DA
:10031000F0B441EA012141EA014122F007047FF0F3
:1003200000070023F0E80256083C85EA010586EA4A
:10033000010685FA47F5A3FA87F586FA47F6A5FA86
:1003400087F68EB9EED1F0BC01F0FF0102F0070292
:1003500032B110F8013B013A83EA010313B1F8D13D
:100360000020704701387047002D06BF354603381E
:10037000073815F0010F07D1013015F4807F02BF57
:10038000013015F4C03F0130F0BC0138704700BFA8
:1003900081F0004102E000BF83F0004330B54FEA36
:1003A00041044FEA430594EA050F08BF90EA020FA3
:1003B0001FBF54EA000C55EA020C7FEA645C7FEA36
:1003C000655C00F0E2804FEA5454D4EB5555B8BF59
:1003D0006D420CDD2C4480EA020281EA030382EACA
:1003E000000083EA010180EA020281EA0303362D5C
:1003F00088BF30BD11F0004F4FEA01314FF4801C2F
:100400004CEA113102D0404261EB410113F0004F40
:100410004FEA03334CEA133302D0524263EB4303F7
:1004200094EA050F00F0A780A4F10104D5F1200E95
:100430000DDB02FA0EFC22FA05F2801841F10001F0
:1004400003FA0EF2801843FA05F359410EE0A5F1C4
:1004500020050EF1200E012A03FA0EFC28BF4CF0F5
:10046000020C43FA05F3C01851EBE37101F00045AB
:1004700007D54FF0000EDCF1000C7EEB00006EEBB8
:100480000101B1F5801F1BD3B1F5001F0CD3490842
:100490005FEA30004FEA3C0C04F101044FEA445299
:1004A00012F5800F80F09A80BCF1004F08BF5FEA20
:1004B000500C50F1000041EB045141EA050130BD00
:1004C0005FEA4C0C404141EB0101013C28BFB1F512
:1004D000801FE9D291F0000F04BF01460020B1FA5D
:1004E00081F308BF2033A3F10B03B3F120020CDA30
:1004F0000C3208DD02F1140CC2F10C0201FA0CF00E
:1005000021FA02F10CE002F11402D8BFC2F1200C72
:1005100001FA02F120FA0CFCDCBF41EA0C01904028
:10052000E41AA2BF01EB0451294330BD6FEA040471
:100530001F3C1CDA0C340EDC04F11404C4F120025C
:1005400020FA04F001FA02F340EA030021FA04F36E
:1005500045EA030130BDC4F10C04C4F1200220FAC5
:1005600002F001FA04F340EA0300294630BD21FA03
:1005700004F0294630BD94F0000F83F4801306BFC9
:1005800081F480110134013D4EE77FEA645C18BFBD
:100590007FEA655C29D094EA050F08BF90EA020F54
:1005A00005D054EA000C04BF1946104630BD91EA4C
:1005B000030F1EBF0021002030BD5FEA545C05D14F
:1005C0004000494128BF41F0004130BD14F580048E
:1005D0003CBF01F5801130BD01F0004545F0FE4102
:1005E00041F470014FF0000030BD7FEA645C1ABF37
:1005F000194610467FEA655C1CBF0B46024650EA6E
:10060000013406BF52EA033591EA030F41F4002199
:1006100030BD00BF90F0000F04BF0021704730B51F
:100620004FF4806404F132044FF000054FF00001F4
:1006300050E700BF90F0000F04BF0021704730B5B5
:100640004FF4806404F1320410F0004548BF40428A
:100650004FF000013EE700BF42004FEAE2014FEADF
:1006600031014FEA02701FBF12F07F4393F07F4FBA
:1006700081F06051704732F07F4208BF704793F0BD
:100680007F4F04BF41F40021704730B54FF46074D0
:1006900001F0004521F000411CE700BF50EA0102D3
:1006A00008BF704730B54FF000050AE050EA01027C
:1006B00008BF704730B511F0004502D5404261EBEC
:1006C00041014FF4806404F132045FEA915C3FF42D
:1006D000D8AE4FF003025FEADC0C18BF03325FEACA
:1006E000DC0C18BF033202EBDC02C2F1200300FA7B
:1006F00003FC20FA02F001FA03FE40EA0E0021FAA0
:1007000002F11444BDE600BFDFF834D0002103E05D
:100710000C4B5B58435004310B480C4B42189A4227
:10072000F6D30B4A02E0002342F8043B094B9A42FD
:10073000F9D30DF00BFF30F065F905F09FFB704722
:1007400000000424585E0308000000243001002447
:10075000405D0024FC220224FEE780B400AF00BF0D
:10076000BD465DF8047B704780B400AF00BFBD4656
:100770005DF8047B704780B500AF03F0A1FB03F088
:100780006DFB00BF80BD80B582B000AF786003F024
:100790009FFB00BF0837BD4680BD000080B483B01A
:1007A00000AF7860044A7B681A607B6818460C3793
:1007B000BD465DF8047B7047C039030880B582B040
:1007C00000AF78607868FFF7E9FF0C2178682FF0B8
:1007D0004CFA7B6818460837BD4680BD80B584B0AA
:1007E00000AF78600B46FB70FB78002B11D07B6864
:1007F0001B6810331B687868984702467B689B68C3
:10080000D31AFB607B685A68FB681A447B685A609D
:1008100008E07B681B6810331B68786898470246BD
:100820007B689A6000BF1037BD4680BD80B483B03E
:1008300000AF78607B685B6818460C37BD465DF892
:10084000047B704780B483B000AF786039607B6808
:100850003A685A6000BF0C37BD465DF8047B7047AC
:1008600080B483B000AF78600B4B1B680A4A43F03A
:1008700080731360094B1A680849094B13430B60D6
:10088000084B1B68074A43F00103136000BF0C3795
:10089000BD465DF8047B7047FCED00E0B01F00E052
:1008A00055CEACC5001000E080B485B000AFF86054
:1008B000B9607A603B607A68BB68D21A3B685B08B3
:1008C0001A443B68B2FBF3F318461437BD465DF893
:1008D000047B704780B483B000AF7860034B1B6823
:1008E00018460C37BD465DF8047B7047041000E0E5
:1008F00080B584B000AF78600B46FB70FB78002BAE
:1009000011D07B681B6810331B68786898470246D3
:100910007B689B68D31AFB607B685A68FB681A4443
:100920007B685A6008E07B681B6810331B68786836
:10093000984702467B689A6000BF1037BD4680BD6D
:1009400080B582B000AF7860054A7B681A607B682A
:100950001846FFF723FF7B6818460837BD4680BD61
:100960009839030880B582B000AF78607868FFF7E7
:10097000E7FF0C2178682FF078F97B681846083774
:10098000BD4680BD80B483B000AF7860044A7B6808
:100990001A607B6818460C37BD465DF8047B7047CB
:1009A000003A030880B582B000AF78607868FFF73E
:1009B000E9FF042178682FF058F97B68184608375A
:1009C000BD4680BD80B586B000AF786008233B612E
:1009D00000237B61074B1B88BB60074B1B88FB60B8
:1009E00007F10803194600200DF092FB00BF1837ED
:1009F000BD4680BDD6150224D815022480B588B026
:100A000000AFF860B9607A6007F1100300221A6045
:100A10005A609A6007F11003194600200DF01EFC81
:100A20000346002B14BF01230023DBB2002B0BD0A5
:100A30004FF0500383F31188BFF36F8FBFF34F8FD5
:100A4000FB6100BF00BFFDE73B69002B09D07B695C
:100A50001A46BB681A60BB691A467B681A60012394
:100A600000E0002318462037BD4680BD80B582B027
:100A700000AF7860054A7B681A607B681846FFF70C
:100A800081FF7B6818460837BD4680BDE8390308FA
:100A900080B582B000AF78607868FFF7E7FF042187
:100AA00078682FF0E2F87B6818460837BD4680BDAD
:100AB00080B582B000AF00237B6015E07B68DBB2BD
:100AC000184600F00BF90346002B0AD00A4A7B684F
:100AD00052F82330012B04D0074A7B68012142F8E9
:100AE00023107B6801337B607B68042BE6DD00BF4D
:100AF00000BF0837BD4680BD5C5D002480B582B074
:100B000000AF0346FB71FB79032B4BD801A252F8CF
:100B100023F000BF250B0008450B0008650B0008FB
:100B2000850B0008FB79214A52F82330002B0CBFBB
:100B300001230023DBB21A464FF480411C480EF01B
:100B40006DFD2FE0FB79194A52F82330002B0CBFC2
:100B500001230023DBB21A464FF4005114480EF073
:100B60005DFD1FE0FB79114A52F82330002B0CBFCA
:100B700001230023DBB21A464FF400710D480EF03A
:100B80004DFD0FE0FB79094A52F82330002B0CBFD2
:100B900001230023DBB21A464FF4007104480EF023
:100BA0003DFD00BF00BF0837BD4680BD5C5D002431
:100BB000001C02580020025880B582B000AF0346E6
:100BC000FB71FB79032B4BD801A252F823F000BF35
:100BD000E10B0008010C0008210C0008410C000882
:100BE000FB79214A52F82330002B01D0012300E089
:100BF00000231A464FF480411C480EF00FFD2FE0F1
:100C0000FB79194A52F82330002B01D0012300E070
:100C100000231A464FF4005114480EF0FFFC1FE069
:100C2000FB79114A52F82330002B01D0012300E058
:100C300000231A464FF400710D480EF0EFFC0FE050
:100C4000FB79094A52F82330002B01D0012300E040
:100C500000231A464FF4007104480EF0DFFC00BF79
:100C600000BF0837BD4680BD5C5D0024001C0258F3
:100C70000020025880B582B000AF0346FB71FB79BB
:100C8000032B23D801A252F823F000BF9D0C0008CB
:100C9000A90C0008B50C0008C10C00084FF48041F5
:100CA0000C480EF0D4FC11E04FF4005109480EF04E
:100CB000CEFC0BE04FF4007107480EF0C8FC05E0D5
:100CC0004FF4007103480EF0C2FC00BF00BF0837AC
:100CD000BD4680BD001C02580020025880B584B07B
:100CE00000AF0346FB710023FB73FB79032B2BD86A
:100CF00001A252F823F000BF090D0008190D0008E9
:100D0000290D0008390D00084FF4804113480EF0FA
:100D10006DFC0346FB7317E04FF400510F480EF0D3
:100D200065FC0346FB730FE04FF400710C480EF0B6
:100D30005DFC0346FB7307E04FF4007107480EF0BB
:100D400055FC0346FB7300BFFB7B012B0CBF01234B
:100D50000023DBB218461037BD4680BD001C025888
:100D60000020025880B483B000AF7860044A7B68EA
:100D70001A607B6818460C37BD465DF8047B7047E7
:100D80002C4E030880B582B000AF78607868FFF71A
:100D9000E9FF842178682EF068FF7B6818460837E1
:100DA000BD4680BD80B400AF034B1B681846BD46EE
:100DB0005DF8047B704700BFDC15022480B483B06B
:100DC00000AF78600B46FB707B68FA7883F8782078
:100DD0007B68012283F8792000BF0C37BD465DF89F
:100DE000047B704780B582B000AF78600B467B8093
:100DF00013463B800C4B1B887A889A4204D30B4BDA
:100E00001B883A889A4205D2094B0A4AA3210A480C
:100E10002FF0A2FA094A7B881380094A3B88138085
:100E200000BF0837BD4680BDD0150224D21502246C
:100E3000D01303083414030878140308D6150224C9
:100E4000D815022480B483B000AF786000BF0C379F
:100E5000BD465DF8047B704780B582B000AF786016
:100E60007B6893F87A30002B09D07B685A687B68DE
:100E70005B681B681B6810469847034600E0002328
:100E800018460837BD4680BD80B582B000AF786097
:100E900078681BF023FA7B681B68BC331B68786892
:100EA000984700BF0837BD4680BD80B483B000AF0F
:100EB00078603960002318460C37BD465DF8047B26
:100EC0007047000080B584B000AFF860B9607A6008
:100ED0003B60BB68002B06D10F4B104A40F2FF214C
:100EE0000F482FF039FAFB68BA68DA63FB687A6852
:100EF0001A647B68002B14BF01230023DAB2094B6C
:100F00001A70FB681B6890331B683968F86898474B
:100F100000BF1037BD4680BDC0140308F814030895
:100F200078140308DA15022480B483B000AF786027
:100F300039607B683A685A643B68002B14BF012310
:100F40000023DAB2034B1A7000BF0C37BD465DF8C0
:100F5000047B7047DB15022480B483B000AF786057
:100F60000B467B8000BF0C37BD465DF8047B7047A5
:100F700080B483B000AF786039607B683A681A61EA
:100F800000BF0C37BD465DF8047B704780B483B06A
:100F900000AF78600B46FB707B68FA7883F87020AE
:100FA00000BF0C37BD465DF8047B704780B483B04A
:100FB00000AF7860002318460C37BD465DF8047B0F
:100FC000704780B582B000AF78600B467B807B684D
:100FD0009B6B002B04D07B689B6B7A8810469847EC
:100FE00000BF0837BD4680BD80B483B000AF7860D5
:100FF0004FF6FF7318460C37BD465DF8047B70470B
:1010000080B582B000AF78607B685A687B685B68A7
:101010001B6818331B681046984703461846083764
:10102000BD4680BD80B483B000AF786000BF0C3790
:10103000BD465DF8047B704780B485B000AF786032
:101040007B6893F878207B6893F834309A4211D00B
:10105000144B1B78002B1ED1134B1B88BB81134BE9
:101060001A88114B1A80114ABB8913800D4B01223B
:101070001A7010E00B4B1B78002B0CD00A4B1B880E
:10108000FB810A4B1A88084B1A80084AFB89138097
:10109000044B00221A7000BF1437BD465DF8047B74
:1010A000704700BFD4150224D2150224D0150224A3
:1010B00080B483B000AF786000BF0C37BD465DF8E8
:1010C000047B704780B582B000AF78607B681846BB
:1010D0001AF01FFB00BF0837BD4680BD80B582B047
:1010E00000AF78607B6818461AF05EFC7B685A682F
:1010F0007B685B681B6810331B681046984700BF0D
:101100000837BD4680BD000080B582B000AF786072
:10111000054A7B681A607B681846FFF723FE7B68E8
:1011200018460837BD4680BD0840030880B582B028
:1011300000AF78607868FFF7E7FF842178682EF0C9
:1011400094FD7B6818460837BD4680BD80B582B0E7
:1011500000AF78607B681846FFF7B4FF00BF083720
:10116000BD4680BD80B582B000AF78607B68184610
:1011700003F03AFF7B6884331846FFF771FB7A6807
:101180007B68843319461046FFF7F2FE7B68012125
:101190001846FFF7FBFE00BF0837BD4680BD80B58F
:1011A00082B000AF78607B68184603F0DBFF03462F
:1011B00018460837BD4680BD80B582B000AF786064
:1011C00039607B683968184603F0DAFF00BF0837DA
:1011D000BD4680BD80B586B000AF786039607B6861
:1011E0003968184603F0E2FF1F4B0022C3F8842041
:1011F000BFF34F8F00BF1C4BD3F880307B617B69FE
:101200005B0BC3F30E033B617B69DB08C3F309038C
:10121000FB603B695A0143F6E0731340FA6892079A
:1012200011491343C1F87432FB685A1EFA60002B4F
:1012300014BF01230023DBB2002BEAD13B695A1E05
:101240003A61002B14BF01230023DBB2002BDBD15A
:10125000BFF34F8F00BFBFF36F8F00BF00BF00BF52
:101260001837BD4680BD00BF00ED00E080B582B0FC
:1012700000AF78607B68184603F0F2FE00BF0837C5
:10128000BD4680BD80B582B000AF78607B681846EF
:1012900003F0F6FE00BF0837BD4680BD80B582B0C2
:1012A00000AF78607B68184603F0F8FE00BF08378F
:1012B000BD4680BD80B582B000AF78607B681846BF
:1012C00003F0FAFE00BF0837BD4680BD80B582B08E
:1012D00000AF78607B68002B07D0FFF763FD034603
:1012E000012118461BF014F806E0FFF75BFD0346EA
:1012F000002118461BF00CF8012318460837BD469C
:1013000080BD000080B582B000AF7860084A7B687D
:101310001A607B6884331846FFF712FB7B68184617
:10132000FFF7F2FE7B6818460837BD4680BD00BF58
:10133000183A030880B582B000AF78607868FFF78C
:10134000E1FF902178682EF090FC7B681846083702
:10135000BD4680BD80B483B000AF7860044A7B682E
:101360001A607B6818460C37BD465DF8047B7047F1
:10137000483B030880B582B000AF78607868FFF71B
:10138000E9FF042178682EF070FC7B681846083766
:10139000BD4680BD80B483B000AF78607B681B7AA7
:1013A00018460C37BD465DF8047B704780B483B0A7
:1013B00000AF78607B689B7ADBB218460C37BD467D
:1013C0005DF8047B704780B483B000AF78607B68C1
:1013D0005B6918460C37BD465DF8047B704780B4E6
:1013E00083B000AF78607B6893F8403018460C37C4
:1013F000BD465DF8047B704780B483B000AF786071
:10140000044A7B681A607B6818460C37BD465DF855
:10141000047B7047483B030880B582B000AF78601A
:101420007B681846FFF7E8FF204A7B681A607B68F4
:1014300000225A617B6800229A617B680022DA618F
:101440007B6800221A627B6800225A627B68002255
:101450009A627B680022DA627B6800221A637B68EA
:1014600000225A637B6800229A637B680022DA6359
:101470007B68002283F840207B6800221A617B6829
:101480000022DA607B6800225A607B6800229A6042
:1014900000220021012015F0BEFF0346044A13601C
:1014A0007B6818460837BD4680BD00BF043B030873
:1014B000985D002480B586B000AFF860B9607A60AE
:1014C0003B60FB681B6B002B08D0FB685A6BFB680A
:1014D000DB6BB968CB1A13447B6104E0FB68DA6A02
:1014E000BB6813447B613A68796878692FF0D8F952
:1014F000034618461837BD4680BD80B487B000AF9C
:10150000786039607B681B6B002B24D07B68DB6BB9
:101510003A68D31AFB607B685A6BFB6813441B78EC
:1015200019467B685A6BFB68013313441B781B0216
:1015300041EA03027B68596BFB6802330B441B785A
:101540001B041A437B68596BFB6803330B441B78FD
:101550001B06134329E07B68DA6A3B6813447B610E
:1015600000233B617B691B78DBB21A463B6913435E
:101570003B617B6901331B78DBB21B021A463B6976
:1015800013433B617B6902331B78DBB21B041A46B1
:101590003B6913433B617B6903331B78DBB21B065A
:1015A0001A463B6913433B613B6918461C37BD46ED
:1015B0005DF8047B704780B487B000AF7860396015
:1015C0007B681B6B002B13D07B68DB6B3A68D31AEC
:1015D000FB607B685A6BFB6813441B7819467B6879
:1015E0005A6BFB68013313441B781B020B4317E053
:1015F0007B68DA6A3B6813447B6100233B617B694B
:101600001B78DBB21A463B6913433B617B690133AC
:101610001B78DBB21B021A463B6913433B613B69F3
:1016200018461C37BD465DF8047B704780B584B012
:1016300000AFF860B9607A60FB681B6B002B33D099
:10164000FB689B6B7A689A4209D9FB68092283F888
:101650004020194B194AA02119482EF07DFEFB6845
:101660001A6BFB681B6B1B680C331B68B968104650
:101670009847FB68186BFB681B6B1B6810331B6873
:10168000FA68516B7A689847034683F00103DBB22E
:10169000002B03D0FB680D2283F84020FB68BA685A
:1016A000DA63FB685B6B03E0FB68DA6ABB681344D0
:1016B00018461037BD4680BD481503085C15030861
:1016C000A015030880B58EB004AFF860B96011466C
:1016D0001A460B46FB801346BB80FB685B69002BF8
:1016E00005D14E4B4E4AB2214E482EF035FEFB68D6
:1016F0009B6908221946F868FFF798FFFB689B6909
:101700001946F868FFF757FF3862FB689B69023398
:101710001946F868FFF74FFFF861FB689B690433CF
:101720001946F868FFF7E9FEB86143F23003FB821F
:1017300046F26433BB82FB689A69BB69134403F1C8
:101740000802FB689B6A9A4255D23B6A43F2300218
:10175000934226D1FB6946F26432934221D1BB69A0
:10176000002B1ED0FB689B6903F10802FB689A619D
:10177000FB689B69BA691946F868FFF757FF38613B
:101780003B6B0293BB880193FB880093BB68BA69EB
:101790003969F86800F08EFAFB685B695A1CFB68CF
:1017A0005A61002387F82730FB689A69BB691A449D
:1017B000FB689A61BB69002B05D1FB689B6903F14B
:1017C0000802FB689A61FB689B69013323F0010200
:1017D000FB689A61FB689A69FB685B6A9A4214D15C
:1017E000FB6801225A61FB681A6AFB689A6101234F
:1017F00087F8273009E0FB6801225A61FB681A6A02
:10180000FB689A61012387F8273097F8273083F027
:101810000103DBB218462837BD4680BDF815030822
:1018200044160308A015030880B586B000AF7860A1
:101830007B685B69002B05D1374B384AE621384875
:101840002EF08AFD7B689B69082219467868FFF7AD
:10185000EDFE7B689B69043319467868FFF74DFEFF
:10186000786143E07B689A697B69134403F108025D
:101870007B689A617B689B69013323F001027B6876
:101880009A617B685B695A1C7B685A617B689B69BB
:10189000082219467868FFF7C9FE7B689B691946DC
:1018A0007868FFF788FE38617B689B6902331946C8
:1018B0007868FFF780FEF8607B689B6904331946FF
:1018C0007868FFF71AFE786143F230037B8146F2B5
:1018D00064333B813B6943F23002934206D1FB689B
:1018E00046F26432934201D1012311E07B689A6988
:1018F0007B69134403F108027B689B6A9A42B1D367
:101900007B6801225A617B681A6A7B689A610023AE
:1019100018461837BD4680BDF8150308A016030801
:10192000A015030880B584B000AFF860B9607A6094
:10193000FB68BA68DA62FB687A689A62FB68002220
:101940001A63F86800F034F800BF1037BD4680BD58
:1019500080B582B000AF786039607B683A681A63FE
:101960007B680022DA623B681B6808331B683868B2
:10197000984702467B689A62786800F019F800BFC1
:101980000837BD4680BD80B483B000AF78607B6807
:101990001B6B002B03D17B68DB6A002B01D001237A
:1019A00000E0002318460C37BD465DF8047B704705
:1019B00080B58AB000AF78607B6800229A617B684E
:1019C000002283F84020482200217868FFF72EFE8D
:1019D0007B6899690423A54A7868FFF76BFD034685
:1019E000002B14BF01230023DBB2002B0AD07B683D
:1019F000032283F840209E4B9E4A4FF497719E48E5
:101A00002EF0AAFC7B689B6903F108027B689A614F
:101A10007B6899690423994A7868FFF74BFD034670
:101A2000002B14BF01230023DBB2002B0AD07B68FC
:101A3000042283F84020924B8E4A4FF49B718E48CB
:101A40002EF08AFC7B689B691A1D7B689A617B6813
:101A5000996904238B4A7868FFF72CFD0346002B15
:101A600014BF01230023DBB2002B0AD07B680522C0
:101A700083F84020844B7F4A40F23D117E482EF08F
:101A80006BFC7B689B69043319467868FFF735FD6A
:101A9000F8617B689B69BB61FB69002B06D17B4BBE
:101AA000744A40F2431174482EF056FC012387F823
:101AB00027307B689B6908337B610423744A79690A
:101AC0007868FFF7F7FC0346002B14BF01230023BF
:101AD000DBB2002B06D07B68062283F8402000236F
:101AE00087F827307B6904337B610423694A79696D
:101AF0007868FFF7DFFC0346002B14BF01230023A7
:101B0000DBB2002B06D07B68072283F8402000233D
:101B100087F8273097F82730002B28D07B690833C7
:101B20007B6179697868FFF7E8FC03465A4AA2FBB3
:101B300003239A097B685A607B69103319467868D9
:101B4000FFF7DBFC02467B689A607B69203319460D
:101B50007868FFF7D2FC02467B68DA607B69243341
:101B600019467868FFF7C9FC02467B681A61BA69B2
:101B7000FB69134408333B620C22396A7868FFF72B
:101B800055FD11E03B6A043319467868FFF7B5FC50
:101B900003460833FB603A6AFB6813443B620C223D
:101BA000396A7868FFF742FD3B6A03F108010423B4
:101BB0003A4A7868FFF77EFC0346002B0BD07B681F
:101BC00093F84030002B06D17B689B6A3A6A9A42B0
:101BD00001D2012300E00023002BD3D17B6893F8CE
:101BE0004030002B04D07B680A2283F840205EE05E
:101BF0003B6A03F10C027B689A613B6A0433194625
:101C00007868FFF77AFC02463B6A134403F1080246
:101C10007B685A623B6A043319467868FFF76DFCAB
:101C2000034608333B613A6A3B6913443B62042232
:101C3000396A7868FFF7FAFC0423194A396A786828
:101C4000FFF738FC0346002B0CBF01230023DBB257
:101C5000002B27D07B683A6ADA617B6801225A61DF
:101C60007B689A697B681A6221E000BFD41603087A
:101C7000DC160308F8160308A01503082817030844
:101C8000301703084817030850170308681703089C
:101C9000741703087C170308D34D621084170308D8
:101CA0008C1703087B680B2283F8402000BF28377D
:101CB000BD4680BD80B584B000AFF860B9607A6081
:101CC0003B607B68002B67D03B68002B65D0344BB2
:101CD00003221A61FB68DB68314A1360304B1B68D2
:101CE00003F00F03002B06D02D4B1B6823F00F03CE
:101CF00010332B4A13602A4B1A6913461B019B1A97
:101D00005B011A46264B5A60254B1B681B09244A67
:101D1000D360FB681B6903F00F03002B06D0FB6840
:101D20001B6903F00F03C3F1100300E000231C4AFA
:101D300093601C4A3B6813603B687A68B9681A482C
:101D400000F0FCF8FB685B6C184A1360164800F062
:101D5000B3FA0346164A1360154B1B68022B0CBFDF
:101D600001230023DBB2002B06D0124B1B684FF07F
:101D7000FF31184615F0D8FB0D4B1B68012B14BF23
:101D800001230023DBB2002BE0D10B4B00221A60B1
:101D90000A4B00221A6000E000BF1037BD4680BD2C
:101DA000A45D00246C5D0024407300248C5D00243D
:101DB000845D0024985D00247C5D0024A05D0024E7
:101DC00080B586B000AFF860B9607A603B60FB68B0
:101DD0009B6908221946F868FFF728FCFB689B6995
:101DE00004331946F868FFF788FB7861FB689B6944
:101DF00008337A691946F868FFF718FC38617B6880
:101E0000002B14D07B687A6939690B4800F096F88A
:101E1000094800F051FA0346084A1360074B1B6853
:101E2000002B0CBF01230023DBB2002BF0D10123D8
:101E300018461837BD4680BD40730024845D0024D9
:101E400080B584B000AFF860B9607A607B80034BE6
:101E5000034A4FF4E47103482EF07EFA9417030806
:101E600098170308A015030880B584B000AF786008
:101E700039603B68002B01D101233B607B681B6804
:101E80002C331B687868984702463B6893428CBFA6
:101E900001230023DBB2002B06D07B681B682C33A8
:101EA0001B687868984738607B68DA693B68013B53
:101EB0001B0113440833FB601022F9687868FFF7B0
:101EC000B5FBFB68083319467868FFF716FB024636
:101ED0007B681B6A13441A1F7B689A617B683A68A7
:101EE0005A6100BF1037BD4680BD80B483B000AFDB
:101EF00078607B689B6818460C37BD465DF8047BAC
:101F0000704780B483B000AF78600B46FB7000BFB1
:101F10000C37BD465DF8047B704790B482B000AFCB
:101F2000786039603A687B68144604330FCB84E8E4
:101F30000F0000BF0837BD4690BC704780B588B021
:101F400002AFF860B9607A603B60264B00221A60ED
:101F5000254B00221A60254B00221A60244B0022D8
:101F60001A60BB68234A1360234A7B681360234BC3
:101F700000221A6000237B6116E0214A7B691B0165
:101F8000134400221A701E4A7B691B011344083354
:101F900000221A601A4A7B691B0113440C33002289
:101FA0001A607B6901337B617B69012BE5D90F4B9B
:101FB0001B68134A1B01134404331968114BDA6878
:101FC00013465B001344DB0100930B464FF4504271
:101FD000B968F8680EF0FFFA002318461837BD46B6
:101FE00080BD00BF805D00249C5D0024905D0024C6
:101FF000705D0024785D0024745D0024945D0024ED
:1020000004000024A45D002480B485B000AF786093
:1020100039603B685B68012B2AD13B68DB6803F0C1
:102020000F03002B07D03B68DB6823F00F0303F19D
:1020300010023B68DA603B689B6803F00F03002BDB
:1020400007D03B689B6823F00F0303F110023B6845
:102050009A603B68DB681B09FB603B689B681B0957
:10206000BB60FB68BA6802FB03F3244A13603FE0DD
:102070003B685B68022B1BD13B68DB6803F00F03F6
:10208000002B07D03B68DB6823F00F0303F110023D
:102090003B68DA603B689B6803F00703002B07D0BE
:1020A0003B689B6823F0070303F108023B689A60D2
:1020B0003B685B68002B1BD13B68DB6803F00703C0
:1020C000002B07D03B68DB6823F0070303F108020D
:1020D0003B68DA603B689B6803F00703002B07D07E
:1020E0003B689B6823F0070303F108023B689A6092
:1020F00000BF1437BD465DF8047B7047885D00243F
:1021000080B584B000AF78603960144B1A683B68C2
:102110001344124A1360114B1A68114B1B689A4200
:1021200018D2104B1A683B6813440E4A13600C4BCC
:102130001A680A4B1B68D31AFB600A4B1B681946C6
:10214000FB68B3F5504F28BF4FF450431A467868E8
:102150000EF0E7FB00BF1037BD4680BD705D002468
:10216000745D0024785D002480B586B000AFF8600F
:10217000B9607A603D4B1B683D4A1B011344012244
:102180001A703A4B1B683A4A1B01134408337A68A9
:102190001A60384B1B687B61344B1B68344A1B0147
:1021A00013440C337A691A60334BDA68314B1B687D
:1021B0001344304A13602D4B1B6801332B4A1360C4
:1021C0002A4B1B68012B8CBF01230023DBB2002BA1
:1021D00002D0264B00221A60244B1B68244A1B01A4
:1021E00013441B78002B14BF01230023DBB2002B08
:1021F00006D00221F8680EF051FA204B01221A6035
:102200001A4B1B681A4A1B011344043319681A4BF2
:10221000DA6813465B001344DB011A46F8680EF0D7
:1022200092FB174B1B681846FFF7B4F8034683F080
:102230000103DBB2002B0CD0114B1B681846FFF7D3
:10224000B5F8034683F00103DBB2002B01D0012374
:1022500000E00023002B04D00A4B1B68184615F041
:10226000B5F900BF1837BD4680BD00BF905D0024A2
:1022700004000024945D0024A45D0024805D0024FB
:102280008C5D0024985D002480B483B000AF78603A
:1022900072B600BF00BFFDE780B483B000AF7860C6
:1022A000044B01221A6000BF0C37BD465DF8047B69
:1022B000704700BF7C5D002480B582B000AF7860BD
:1022C0002A4B1B68002B05D0294B1B68002B01D023
:1022D000012300E00023002B01D0012341E0254B26
:1022E0001B681846FFF756F8034683F00103DBB27C
:1022F000002B0DD0204B1B68204A1B0113441B7878
:10230000012B05D11A4B1B68002B01D1012300E0E2
:102310000023002B08D0174B1A68164B1B681B684C
:1023200010331B6810469847154B1B68012B0DD1C5
:10233000144B1B68114A1B0113441B78002B05D159
:102340000A4B1B68002B01D1012300E00023002B66
:1023500006D00B4B00221A60022178680EF0F6F9C5
:10236000022318460837BD4680BD00BF7C5D0024AF
:10237000A05D00248C5D00249C5D002404000024EA
:10238000805D0024905D002480B485B000AF78604B
:102390007B68DB681A01264B1B68B2FBF3F31B0159
:1023A000FB60234B5A68FB6802FB03F3BB60214BC5
:1023B00001225A637B68DA681F4B19681C4BDB6883
:1023C000CB1A9A420BD31A4B9B68C3F11002184BDD
:1023D000DB681B011B04174913434B6407E0144BD4
:1023E000DB681B011B04134A43F010035364134BB7
:1023F0001A68BB681A440F4BDA630D4BDB68C3F1F4
:102400001E030C4A1B0113640A4B00221A61094B7C
:102410000B4ADA617B685A68064BDA60054B094A59
:102420001A6000BF1437BD465DF8047B704700BFDB
:10243000A45D002400100052885D00246C5D00241F
:102440000B0009FF0123010080B582B000AF786066
:102450007B6800221A707B6800229A60124B1B680E
:102460000133114A1360104B1B68012B8CBF0123F1
:102470000023DBB2002B02D00B4B00221A607B68DA
:10248000DA680A4B19680A4BDB68CB1A9A4202D306
:10249000084B01221A60084B1B68184615F096F885
:1024A00000BF0837BD4680BD9C5D0024885D0024C8
:1024B000A45D0024A05D0024985D002480B582B056
:1024C00000AF7860054A7B681A607B681846FEF7A3
:1024D00041FF7B6818460837BD4680BD043B0308B2
:1024E00080B582B000AF78607868FFF7E7FF4821D9
:1024F00078682DF0BAFB7B6818460837BD4680BD6A
:1025000080B500AF00220121012014F084FF0346B2
:102510000F4A13600E4B1B68002B05D10D4B0E4A62
:1025200028210E482DF018FF00220421012015F06B
:1025300091F803460A4A1360094B1B68002B05D12A
:10254000084B054A2C2105482DF006FF00BF80BD31
:10255000B85D0024F4170308401803087018030836
:10256000BC5D0024BC18030880B500AF044B1B6899
:102570004FF0FF31184614F0D7FF00BF80BD00BFF9
:10258000B85D002480B500AF034B1B68184615F0FA
:102590001DF800BF80BD00BFB85D002480B500AF4E
:1025A000034B1B680021184614F0BEFF00BF80BD1E
:1025B000B85D002480B500AF034B1B68184615F0CA
:1025C00005F800BF80BD00BFB85D002480B500AF36
:1025D000044B186800230022034915F0AFF800BF30
:1025E00080BD00BFBC5D00242400002480B582B003
:1025F00000AF094B1868391D0023002215F0FEF8C2
:10260000054B1868391D4FF0FF33002215F0F6F81E
:1026100000BF0837BD4680BDBC5D002480B483B0D8
:1026200000AF0346FB80B7F90630002B0BDBFB88BD
:1026300003F01F020749B7F906305B09012000FAD1
:1026400002F241F8232000BF0C37BD465DF8047B41
:10265000704700BF00E100E080B483B000AF0346E4
:10266000FB80B7F90630002B12DBFB8803F01F025A
:102670000A49B7F906305B09012000FA02F220335B
:1026800041F82320BFF34F8F00BFBFF36F8F00BF10
:1026900000BF0C37BD465DF8047B704700E100E0E9
:1026A00080B483B000AF78607B6800221A607B68DA
:1026B00018460C37BD465DF8047B704780B483B084
:1026C00000AF78607B681B6818460C37BD465DF824
:1026D000047B704780B483B000AF7860044A7B68A5
:1026E0001A607B6818460C37BD465DF8047B70475E
:1026F000D83B030880B582B000AF78607868FFF7F8
:10270000E9FF042178682DF0B0FA7B681846083795
:10271000BD4680BD80B582B000AF78607B681B6825
:1027200044331B687868984700BF0837BD4680BDB2
:1027300080B483B000AF7860044A7B681A607B681D
:1027400018460C37BD465DF8047B7047184F0308E8
:1027500080B582B000AF78607868FFF7E9FF0C21A0
:1027600078682DF082FA7B6818460837BD4680BD30
:1027700080B483B000AF78603960094A7B681A6022
:102780007B683A685A607B6800221A727B68002274
:102790005A727B6818460C37BD465DF8047B70475B
:1027A000184F030880B483B000AF78600123184647
:1027B0000C37BD465DF8047B7047000080B582B0E1
:1027C00000AF78607B6893F8A03D83F00103DBB233
:1027D000002B2ED07A687B681B6828331B68104654
:1027E0009847294B1B68294A1B0113441B78012B6E
:1027F00014D1274B1B68002B10D17B681B7A83F008
:102800000103DBB2002B09D07B689B7ADBB283F03B
:102810000103DBB2002B01D0012300E00023002BD9
:102820002DD07B68012283F8A02D786800F0B6F8DF
:1028300025E0786800F096F87B685A687B685B68EA
:102840001B681B6810469847034683F00103DBB200
:10285000002B06D07B685B7ADBB2002B01D0012312
:1028600000E00023002B0AD07B68002283F8A02D13
:102870007A687B681B6824331B681046984700BF42
:102880000837BD4680BD00BF9C5D002404000024C5
:10289000A05D002480B582B000AF78607B68D3F87B
:1028A000A43D4FF0FF31184614F02DFD7B685A68A7
:1028B0007B685B681B681B6810469847034683F07B
:1028C0000103DBB2002B0DD07B685B7ADBB2002BFF
:1028D00008D07B681B7A83F00103DBB2002B01D0A8
:1028E000012300E00023002B0BD07B68002283F83B
:1028F000A02D7A687B681B6824331B6810469847B4
:1029000022E0164B1B68164A1B0113441B78012B4F
:1029100010D17B681B7A83F00103DBB2002B09D056
:102920007B689B7ADBB283F00103DBB2002B01D022
:10293000012300E00023002B06D07B68012283F8EE
:10294000A02D786800F02AF87B68D3F8A43D1846DB
:1029500014F024FD00BF0837BD4680BD9C5D0024F7
:102960000400002480B582B000AF78607B681B7AD9
:10297000002B0AD07B6800221A72064B1B681B01D1
:10298000054A13441846FFF75FFD00BF0837BD46F0
:1029900080BD00BF9C5D00240400002480B582B08F
:1029A00000AF78607B6801221A72064B1B681B011E
:1029B000054A13441846FFF7E7FC00BF0837BD4639
:1029C00080BD00BF9C5D00240400002480B582B05F
:1029D00000AF78607B685A687B685B681B6814335B
:1029E0001B681046984700BF0837BD4680BD80B5BC
:1029F00082B000AF7860FEF7D5F903461846FFF7BE
:102A0000E5FF00BF0837BD4680BD80B483B000AF8E
:102A1000786000BFFDE7000080B582B000AF78604D
:102A2000054A7B681A607B681846FFF753FE7B688F
:102A300018460837BD4680BD684F030880B582B090
:102A400000AF78607868FFF7E7FF142178682DF011
:102A50000CF97B6818460837BD4680BD80B582B04A
:102A600000AF78607B680C331846FFF719FE7B686F
:102A700018460837BD4680BDB0B582B000AF78605B
:102A80007A687B680C3319461046FFF771FE164AC8
:102A90007B681A607B6803F10C007B68203360223E
:102AA000194619F085FD7B6820335F241D4604E03C
:102AB0002846FFF7D3FF013C2435002CF8DA7B6869
:102AC000002283F8A02D7B680022C3F8A42D0020EB
:102AD00014F093FB02467B68C3F8A42D7B6818466C
:102AE0000837BD46B0BD00BF883B030880B582B043
:102AF00000AF7860094A7B681A605A20FFF7ACFD86
:102B00007B680C331846FFF787FF7B681846FFF792
:102B10000FFE7B6818460837BD4680BD883B03081A
:102B200080B582B000AF78607868FFF7DFFF40F6CD
:102B3000A85178682DF099F87B6818460837BD468B
:102B400080BD000080B584B000AF7860134BD3F82F
:102B50003431124A43F01003C2F834310F4BD3F82A
:102B6000343103F01003FB60FB680C4BDB6F0B4A46
:102B700043F01003D367094BDB6F084A23F01003BF
:102B8000D367074B074A1A62054B074A5A625A2015
:102B9000FFF744FD00BF1037BD4680BD004402581A
:102BA00084720024EF2900080B2A000880B584B045
:102BB00000AF78600B46FB700023FB60FB780B2BAB
:102BC00026D801A252F823F0052C0008FF2B00089C
:102BD000F92B0008112C0008112C0008112C0008FA
:102BE000112C00080B2C00080B2C00080B2C0008E3
:102BF0000B2C00080B2C00080023FB600EE00123C7
:102C0000FB600BE00223FB6008E00523FB6005E0AE
:102C1000054B064A702106482DF09EFBFB681846BE
:102C20001037BD4680BD00BF001903081C190308FA
:102C30006819030880B584B000AF78600B46FB705C
:102C40000023FB60FB780A2B21D801A252F823F065
:102C5000892C0008832C00087D2C00088F2C00088C
:102C60008F2C00088F2C00088F2C0008832C000864
:102C7000832C0008832C0008832C00080023FB60B1
:102C80000BE00123FB6008E00223FB6005E0054B3D
:102C9000054A912105482DF05FFBFB681846103767
:102CA000BD4680BD00190308B4190308681903085C
:102CB00080B483B000AF786040F2EF3318460C3731
:102CC000BD465DF8047B704790B589B000AF786071
:102CD00039603B685B7F19467868FFF767FFB8612A
:102CE0003B689B7F19467868FFF760FF78613B6817
:102CF0009B7F19467868FFF79DFF38613B685B8BC7
:102D00001A463B689B8AD21A934B1A643B685B8BCA
:102D10001A463B689B8AD21A8F4B9A613B681B8B81
:102D20001A463B689B8AD21A8B4B1A618A4A3B69C6
:102D300053633B68DB8A1A463B689B8A1B041A4331
:102D4000854B5A643B681A69834BDA633B685A685F
:102D5000814BDA603B681B68B3F5007F36D0B3F572
:102D6000007F00F2DD80B3F5807F15D0B3F5807F62
:102D700000F2D680802B43D0802B00F2D180402BF4
:102D800000F0BA80402B00F2CB80042B00F0A08032
:102D9000202B00F0B180C3E03B681B7F1A066E4910
:102DA0006E4B1343CB613B680C336B4C1846FFF7FB
:102DB00085FC03462362684A7B6953623B681A6953
:102DC000654B5A61644B664A1A60C1E03B681B7FE1
:102DD0001A066149634B1343CB613B680C335E4C6D
:102DE0001846FFF76BFC034623625B4A7B6953621C
:102DF0003B681A69584B5A61574B594A1A60A7E009
:102E00003B689B68FB600123FB773B681B7F1A06CE
:102E1000BB691343504A43F40033D3614E4A7B6984
:102E200053623B681A694C4B5A61FB681A1D4A4B46
:102E3000DA62FB681B88DBB2002B02D0012B0CD0BE
:102E40001FE0454BDA69484B1340FA685288013A53
:102E5000120241491343CB611AE03B681B7FFF2BF1
:102E600001D10023FB773C4BDA693F4B1340FA68F2
:102E70005288013A12021343374A43F01003D361D8
:102E800006E03A4B3A4A40F20B113A482DF064FA08
:102E9000314BDB69304A43F02003D36100BF2E4B36
:102EA000DB6903F02003002B14BF01230023DBB2F6
:102EB000002BF4D1284B10229A60FB7F002B03D00B
:102EC000254B274A1A6043E0234B2B4A1A603FE008
:102ED0003B681B7F1A06BB6913431F4A43F4003348
:102EE000D3611D4A7B6953623B681A691A4B5A6168
:102EF000194B1B4A1A602BE03B681B7F1A06BB6903
:102F00001343154A43F40033D361134A7B69536278
:102F10003B681A69104B5A610F4B114A1A6017E04F
:102F20003B681B7F1A06BB6913430B4A43F400330B
:102F3000D3613B685A7F3B689B7F9A4203D0064B24
:102F40000D4A1A6003E0044B42F201321A6000BFDE
:102F500000BF2437BD4690BD001000520A00020099
:102F60000123020009000200EF00FFFF001A03081E
:102F70001C1A0308681903080123010090B585B0E5
:102F800000AF786039603B689B7F19467868FFF72F
:102F900051FEF8602F4AFB6853633B68DB8A1A4690
:102FA0003B689B8A1B041A432A4B5A643B681A6984
:102FB000284BDA633B685B8B1A463B689B8AD21AC4
:102FC000244B1A643B681B68082B2DD13B685B8B34
:102FD0001A463B689B8AD21A1E4B9A613B685B8BF0
:102FE0001A463B689B8AD21A1A4B1A61194AFB6827
:102FF00053623B681B7F1A061649174B1343CB617C
:103000003B680C33134C1846FFF758FB034623620A
:103010003B681A690F4B5A613B681A690D4BDA60BD
:103020000C4B0E4A1A6010E00A4AFB68D361094B48
:1030300000221A613B680C33064C1846FFF73EFB32
:103040000346A363034B064A1A6000BF1437BD460C
:1030500090BD00BF001000520900010001230200D2
:103060000123030080B400AF00BF094B1B6803F0CD
:103070000103002B14BF01230023DBB2002BF4D18A
:10308000034B23229A6000BFBD465DF8047B704766
:103090000010005280B487B000AF786039601B4BDD
:1030A0005B6903F48033002B14BF01230023DBB2E0
:1030B000002B25D07B687B613B683B613B69002B23
:1030C0001DDD7B6903F01F023B691344FB607B69D4
:1030D000BB60BFF34F8F00BF0C4ABB68C2F86832B9
:1030E000BB682033BB60FB68203BFB60FB68002BA8
:1030F000F2DCBFF34F8F00BFBFF36F8F00BF00BF85
:1031000000BF1C37BD465DF8047B704700ED00E052
:1031100080B485B000AFF860B9607A60FB7000BF22
:10312000214B1B6803F00103002B14BF0123002374
:10313000DBB2002BF4D11C4B23229A601A4B0122E4
:103140005A63BB681B04184A43F001035364164AD0
:10315000FB68D363FB78FF2B17D0134B01225A6215
:10316000FB781A061049114B1343CB610E4A7B685A
:1031700023F07F4313620C4AFB6853610A4AFB68E1
:10318000D360094B0A4A1A6008E0074B0122DA6152
:10319000054A7B689363044B064A1A6000BF1437E4
:1031A000BD465DF8047B7047001000520900010025
:1031B000010002000100030080B485B000AFF86098
:1031C000B9607A60FB7000BF1F4B1B6803F00103FE
:1031D000002B14BF01230023DBB2002BF4D11A4BC8
:1031E00023229A60184B01225A637B681B04164AFB
:1031F00043F001035364144AFB68D363124ABB686B
:10320000D360FB78FF2B0FD0FB781A060E490F4BCB
:103210001343CB610C4B01225A620B4AFB6853618A
:10322000094B0A4A1A6008E0FB781A060649074B60
:103230001343CB61044B01221A6000BF1437BD4613
:103240005DF8047B704700BF0010005201000200CF
:1032500080B485B000AFF860B9607A60FB7000BFE1
:10326000184B1B6803F00103002B14BF012300233C
:10327000DBB2002BF4D1134B23229A60114B0122B5
:103280005A637B681B040F4A43F0010353640D4AE1
:10329000FB68D3630B4ABB68D360FB781B06094A03
:1032A00043F40033D361074B01225A62054AFB689D
:1032B0005361044B044A1A6000BF1437BD465DF8E1
:1032C000047B7047001000520100020080B483B0FC
:1032D00000AF78607B6800221A807B6800225A80E9
:1032E0007B6800229A807B680022DA807B6818461F
:1032F0000C37BD465DF8047B7047000080B483B096
:1033000000AF7860044A7B68136000BF0C37BD468D
:103310005DF8047B704700BF4016022480B483B080
:1033200000AF7860044A7B681A607B6818460C37E7
:10333000BD465DF8047B7047383E030880B582B017
:1033400000AF78607868FFF7E9FF042178682CF017
:103350008CFC7B6818460837BD4680BD80B485B0BC
:1033600000AFF860B9607A603B600B4AFB681A6096
:10337000FB68BA685A60FB687A689A60FB683A68CA
:10338000DA60FB68BA691A61FB6818461437BD46F3
:103390005DF8047B704700BF283E030880B483B00B
:1033A00000AF7860044A7B681A607B6818460C3767
:1033B000BD465DF8047B7047283E030880B582B0A7
:1033C00000AF78607868FFF7E9FF142178682CF087
:1033D0004CFC7B6818460837BD4680BD80B483B07E
:1033E00000AF7860396000BF0C37BD465DF8047BE4
:1033F000704780B483B000AF7860396000BF0C378D
:10340000BD465DF8047B704780B483B000AF786040
:10341000396000BF0C37BD465DF8047B704780B44F
:1034200083B000AF78600B46FB7000BF0C37BD4621
:103430005DF8047B704780B483B000AF786000BF54
:103440000C37BD465DF8047B704780B483B000AF95
:10345000786000BF0C37BD465DF8047B7047000004
:1034600080B483B000AF7860044A7B681A607B68E0
:1034700018460C37BD465DF8047B7047003E0308D4
:1034800080B582B000AF78607868FFF7E9FF04216B
:1034900078682CF0EAFB7B6818460837BD4680BD8B
:1034A00080B483B000AF7860044A7B681A607B68A0
:1034B00018460C37BD465DF8047B7047EC3D0308A9
:1034C00080B582B000AF78607868FFF7E9FF04212B
:1034D00078682CF0CAFB7B6818460837BD4680BD6B
:1034E00080B483B000AF7860044A7B681A607B6860
:1034F00018460C37BD465DF8047B7047F05403084E
:1035000080B582B000AF78607868FFF7E9FF0C21E2
:1035100078682CF0AAFB7B6818460837BD4680BD4A
:1035200080B483B000AF786039607B683A689A6095
:1035300000BF0C37BD465DF8047B704780B483B094
:1035400000AF786000BF0C37BD465DF8047B704764
:1035500080B483B000AF78600B46FB7000BF0C37BF
:10356000BD465DF8047B704780B483B000AF7860DF
:1035700039607B683A6803F598731068516803C333
:1035800000BF0C37BD465DF8047B704780B483B044
:1035900000AF7860044A7B681A607B6818460C3775
:1035A000BD465DF8047B7047D43D030880B582B00A
:1035B00000AF78607868FFF7E9FF042178682CF0A5
:1035C00054FB7B6818460837BD4680BD80B483B085
:1035D00000AF7860074A7B681A607B6800225A60F7
:1035E0007B6800229A607B6818460C37BD465DF800
:1035F000047B7047C039030880B483B000AF7860A3
:103600007B6800221A807B6800225A807B68002237
:103610009A807B680022DA807B6800221A817B68AE
:1036200000225A817B6800229A817B6800229A736B
:103630007B6818460C37BD465DF8047B704780B543
:1036400082B000AF78607B681846FFF7D5FF7B68D3
:1036500000221A617B6800229A827B68184608372C
:10366000BD4680BD80B584B000AFF860B9607A60B7
:103670003B60654AFB681A60FB68BA685A60FB6881
:103680007A689A60FB683A68DA60FB6800221A611F
:10369000FB6800225A61FB6800229A61FB681C33B8
:1036A0001846FFF7CCFFFB68002283F83420FB6844
:1036B00000229A63FB680022DA63FB6800221A6426
:1036C000FB6800225A64FB68002283F84820FB68EC
:1036D000012283F84920FB68002283F84A20FB6816
:1036E000002283F84B20FB680022DA64FB68503329
:1036F0001846FFF7EBFDFB68002283F85820FB68B3
:103700000022DA65FB6800221A66FB6800225A660E
:10371000FB68012283F86820FB68002283F8692097
:10372000FB68002283F86A20FB68012283F86B2083
:10373000FB68002283F86C20FB68002283F86D2070
:10374000FB68002283F86E20FB68002283F86F205C
:10375000FB68002283F87020FB6800225A67FB6830
:10376000002283F87820FB68002283F87920FB6828
:10377000012283F87A20FB68012283F87B20FB6812
:10378000002283F87C20FB68042283F87D20BB8B19
:10379000FA6892F87D2093FBF2F39AB2FB68A3F8E3
:1037A0007E20FB68B3F87E30184AA2FB03235B0837
:1037B0009AB2FB68A3F88020FB681422A3F8822049
:1037C000134AFB681360134A3B8B1380114B1A8812
:1037D000114B1A80114ABB8B1380104B1A88104B67
:1037E0001A80104B00221A703A8BBB8B9A4234BF5E
:1037F00001230023DBB21A46FB6883F83420FB6800
:1038000018461037BD4680BD2C4E0308ABAAAAAAA5
:10381000DC150224D0150224D6150224D215022468
:10382000D8150224D415022480B582B000AF786088
:10383000054A7B681A607B681846FFF711FE7B68B3
:1038400018460837BD4680BD4855030880B582B08C
:1038500000AF78607868FFF7E7FF4FF49E717868F3
:103860002CF003FA7B6818460837BD4680BD80B54A
:1038700082B000AF7860786800F004F800BF0837C5
:10388000BD4680BD80B582B000AF78607B68D3F85C
:103890004031002B0FD07B68D3F840217B68D3F8F0
:1038A00040311B680C331B68104698470346002BB9
:1038B00001D0012300E00023002B0ED07B68D3F859
:1038C00040217B68D3F840311B6808331B681046E1
:1038D00098477B680022C3F8402100BF0837BD46E7
:1038E00080BD000080B582B000AF7860054A7B687B
:1038F0001A607B681846FFF797FF7B681846083701
:10390000BD4680BD803D030880B582B000AF7860C1
:103910007868FFF7E7FF4FF4A27178682CF0A5F9FB
:103920007B6818460837BD4680BD000080B582B070
:1039300000AF7860054A7B681A607B681846FFF71D
:1039400025FE7B6818460837BD4680BD683D0308E4
:1039500080B582B000AF78607868FFF7E7FF10218C
:1039600078682CF082F97B6818460837BD4680BD20
:1039700080B582B000AF7860084A7B681A607B68C7
:1039800003F5A2731846FFF7D1FF7B681846FFF7CF
:10399000A9FF7B6818460837BD4680BD143D030863
:1039A00080B582B000AF78607868FFF7E1FF4FF430
:1039B000AE7178682CF059F97B6818460837BD4617
:1039C00080BD80B582B000AF7860786803F0D4FF26
:1039D00000BF0837BD4680BD80B582B000AF7860BB
:1039E000054A7B681A607B681846FFF7C1FF7B6851
:1039F00018460837BD4680BDC03C030880B582B07C
:103A000000AF78607868FFF7E7FF4FF4AE71786831
:103A10002CF02BF97B6818460837BD4680BD80B571
:103A200082B000AF78607B68D3F85831184607F051
:103A3000D7FD7B6818461DF0BDFC00BF0837BD46AA
:103A400080BD80B582B000AF786039603B681846B1
:103A500003F092FF00BF0837BD4680BD80B586B039
:103A600002AFF860B9607A603B60F868BB690093A8
:103A70003B687A68B968FFF771FC044AFB681A6012
:103A8000FB6818461037BD4680BD00BFAC3C03083C
:103A900080B582B000AF7860054A7B681A607B68A9
:103AA0001846FFF77BFC7B6818460837BD4680BD8B
:103AB000AC3C030880B582B000AF78607868FFF74F
:103AC000E7FF142178682CF0D0F87B681846083797
:103AD000BD4680BD80B582B000AF7860054A7B6886
:103AE0001A607B68184617F0E2F87B6818460837BA
:103AF000BD4680BD783C030880B582B000AF7860D9
:103B00007868FFF7E7FF182178682CF0AEF87B683B
:103B100018460837BD4680BD80B582B000AF7860DA
:103B2000054A7B681A607B68184617F0C0F87B6806
:103B300018460837BD4680BD443C030880B582B0B6
:103B400000AF78607868FFF7E7FF4FF42A71786874
:103B50002CF08BF87B6818460837BD4680BD000006
:103B600080B582B000AF7860054A7B681A607B68D8
:103B7000184617F09CF87B6818460837BD4680BD8C
:103B8000103C030880B582B000AF78607868FFF71A
:103B9000E7FF482178682CF068F87B6818460837FA
:103BA000BD4680BD80B582B000AF7860104A7B68AA
:103BB0001A607B6803F549731846FFF70DFF7B68B1
:103BC00003F535731846FFF7CBFF7B682C33184697
:103BD000FFF7A2FF7B6814331846FFF77BFF7B6873
:103BE0001846FFF755FF7B6818460837BD4680BD6D
:103BF000FC3B030880B582B000AF78607868FFF7BF
:103C0000D1FF4FF4906178682CF02FF87B6818464C
:103C10000837BD4680BD000080B500AF0148FFF702
:103C2000C1FF80BDC05D002480B500AF114B1B6893
:103C3000BFF35B8F03F00103002B0CBF01230023B4
:103C4000DBB2002B13D00B482CF011F80346002BED
:103C500014BF01230023DBB2002B08D0064800F07C
:103C600045F806482CF096FB02482CF00CF8024B65
:103C7000184680BD40620024C05D0024193C000845
:103C800080B582B000AF78607B68184617F010F8F6
:103C9000034A7B681A607B6818460837BD4680BDBA
:103CA000783C030880B582B000AF78607B68184626
:103CB00016F0FEFF034A7B681A607B6818460837D7
:103CC000BD4680BD443C030880B582B000AF78603B
:103CD0007B68184616F0ECFF034A7B681A607B6825
:103CE00018460837BD4680BD103C030890B585B026
:103CF00002AF786078687B6803F114017B6803F198
:103D00002C027B6803F535747B6803F549730093D7
:103D10002346FFF7A3FE184A7B681A607B681433BA
:103D20001846FFF7ADFF7B682C331846FFF7BAFF44
:103D30007B6803F535731846FFF7C6FF7B6803F50C
:103D40004773184607F03EFC7B6803F549707B68B3
:103D500003F547737A68194607F01EFC7A687B689A
:103D600003F5497319461046FFF76BFE7B6818464A
:103D70000C37BD4690BD00BFFC3B030880B586B044
:103D800002AFF860B9607A603B60F868BB8B019362
:103D90003B8B00933B687A68B968FFF763FC044A81
:103DA000FB681A60FB6818461037BD4680BD00BF2F
:103DB0000840030880B582B000AF78607B68184681
:103DC000FFF704FC034A7B681A607B6818460837D3
:103DD000BD4680BD9839030880B586B002AFF86053
:103DE000B9607A603B60F868BB8B01933B8B0093B2
:103DF0003B687A68B968FFF7C1FF064AFB681A603A
:103E0000FB6884331846FFF7D5FFFB681846103768
:103E1000BD4680BD183A030880B483B000AF786017
:103E2000044A7B681A607B6818460C37BD465DF80B
:103E3000047B7047003A030880B582B000AF786019
:103E40007B681846FFF7E8FF034A7B681A607B68C7
:103E500018460837BD4680BDE839030890B585B0DF
:103E600002AF03F0B7FA044603F0BEFA0346194660
:103E70000023009300230022204621F029F90B485B
:103E8000FFF73CFA002007F0D1FA09490948FFF78B
:103E900047FB094820F0C8FFFFF7C6FE78600748D7
:103EA000FDF760F900BF0C37BD4690BD7870002467
:103EB0005C700024F06F0024280000247C70002433
:103EC00080B400AF00BFBD465DF8047B70470000C2
:103ED00080B500AF024817F086FC00BF80BD00BF70
:103EE0007C70002480B582B002AF0D48FFF7A4FFBC
:103EF0000C48FEF7C1FD0C4824F04AFF0B481EF0A9
:103F00003DFC4FF4887301934FF4F0730093044B1E
:103F1000054A04490648FFF75FFF00BFBD4680BD64
:103F20004462002448620024F06F00245C70002486
:103F30007C70002480B582B000AF7860054A7B6851
:103F40001A607B681846FFF7E9F97B68184608375E
:103F5000BD4680BD0842030880B582B000AF7860DE
:103F60007868FFF7E7FF042178682BF07EFE7B6816
:103F700018460837BD4680BD80B582B000AF786076
:103F8000054A7B681A607B681846FFF789FA7B68E8
:103F900018460837BD4680BD0456030880B582B078
:103FA00000AF78607868FFF7E7FF1C2178682BF096
:103FB0005CFE7B6818460837BD4680BD80B582B080
:103FC00000AF7860054A7B681A607B681846FFF787
:103FD00087FA7B6818460837BD4680BDE05803085D
:103FE00080B582B000AF78607868FFF7E7FF6C219A
:103FF00078682BF03AFE7B6818460837BD4680BDCE
:1040000080B500AF0948FDF77DF90948FFF792FF39
:104010000848FFF7B1FF0848FFF7D0FF0748FEF751
:1040200065FD0748FCF722FD00BF80BD7C700024C1
:10403000280000245C700024F06F002448620024F3
:104040004462002480B483B000AF78600123184636
:104050000C37BD465DF8047B704780B483B000AF79
:104060007860402318460C37BD465DF8047B7047E6
:1040700080B483B000AF78600B467B807B889B0167
:1040800008337A68134418460C37BD465DF8047B44
:10409000704780B483B000AF78600B467B807B882C
:1040A0009B0108337A68134418460C37BD465DF807
:1040B000047B704780B483B000AF7860012318465A
:1040C0000C37BD465DF8047B704780B483B000AF09
:1040D00078604FF4287318460C37BD465DF8047BB2
:1040E000704780B483B000AF78600B467B807B88DC
:1040F0004FF4287202FB03F308337A68134418461E
:104100000C37BD465DF8047B704780B483B000AFC8
:1041100078600B467B807B884FF4287202FB03F3A8
:1041200008337A68134418460C37BD465DF8047BA3
:10413000704780B483B000AF7860012318460C3715
:10414000BD465DF8047B704780B483B000AF7860F3
:10415000102318460C37BD465DF8047B704780B4C9
:1041600083B000AF78600B467B807B881B010833EF
:104170007A68134418460C37BD465DF8047B7047D7
:1041800080B483B000AF78600B467B807B881B01D6
:1041900008337A68134418460C37BD465DF8047B33
:1041A000704780B582B000AF78607B685B687A68E2
:1041B000D268521099187B68DB6803F00103002B6A
:1041C00002D17B689B680AE07B685B687A68D2688A
:1041D000521013441B687A68926813441B6808469F
:1041E000984700BF0837BD4680BD80B483B000AF9C
:1041F00078607B685B68002B10D07B689B68002B25
:1042000007D17B68DB6803F00103002B01D1012398
:1042100000E00023012B01D0012300E00023184619
:104220000C37BD465DF8047B704780B500AFFFF7E3
:1042300059FE80BD80B500AFFFF7E2FE80BD80B4BF
:1042400083B000AF786039607B683A681A607B6839
:1042500018460C37BD465DF8047B704780B485B0C6
:1042600000AFF860084611461A4603467B810B46AC
:104270003B811346FB80FB687A891A80FB683A8988
:104280005A80FB68FA889A80FB683A8BDA80FB6870
:1042900018461437BD465DF8047B704780B483B080
:1042A00000AF7860044A7B681A607B6818460C3758
:1042B000BD465DF8047B70479C55030880B582B00D
:1042C00000AF78607868FFF7E9FF282178682BF065
:1042D000CCFC7B6818460837BD4680BD80B582B0EF
:1042E00000AF78607B6893F82530002B05D07B68A1
:1042F0001B6814331B687868984700BF0837BD46B1
:1043000080BD80B483B000AF7860002318460C37BE
:10431000BD465DF8047B704780B483B000AF786021
:104320007B68B3F9083018460C37BD465DF8047B4E
:10433000704780B483B000AF78607B68B3F90A300F
:1043400018460C37BD465DF8047B704780B483B0D7
:1043500000AF78600B467B807B687A889A8000BFCC
:104360000C37BD465DF8047B704780B483B000AF66
:1043700078600B467B807B687A88DA8000BF0C37D8
:10438000BD465DF8047B704780B483B000AF7860B1
:104390000B467B807B687A881A8100BF0C37BD464C
:1043A0005DF8047B704780B483B000AF78600B4643
:1043B0007B807B687A885A8100BF0C37BD465DF8E8
:1043C000047B704780B483B000AF786000BF0C37C7
:1043D000BD465DF8047B704780B483B000AF786061
:1043E000396000BF0C37BD465DF8047B704780B470
:1043F00083B000AF7860396000BF0C37BD465DF810
:10440000047B704780B483B000AF7860396000BF30
:104410000C37BD465DF8047B704780B483B000AFB5
:10442000786000BF0C37BD465DF8047B704780B4F0
:1044300083B000AF78607B6893F8253018460C375E
:10444000BD465DF8047B704780B483B000AF7860F0
:104450007B6893F8243018460C37BD465DF8047B22
:10446000704780B582B000AF78600B467B80134602
:104470003B807B681B6854331B6879887A68B2F983
:10448000042092B28A1A92B210B239887A68B2F9CC
:10449000062092B28A1A92B212B201467868984700
:1044A00000BF0837BD4680BD80B483B000AF7860E0
:1044B0007B684FF6FF729A817B684FF6FF721A8411
:1044C0007B684FF6FF725A8400BF0C37BD465DF81B
:1044D000047B704780B584B000AFF860B9607A6043
:1044E000F868FFF7E1FF7B681A68FB68DA617B68B0
:1044F000FA681A6000BF1037BD4680BD80B584B031
:1045000000AFF8607B600B467B8113463B81FB6804
:104510001846FFF78CFF0346002B08D0FB681846AF
:10452000FFF792FF0346002B01D0012300E0002398
:10453000002B02D0FA687B681A6000BF1037BD46B6
:1045400080BD000080B483B000AF7860044A7B680F
:104550001A607B6818460C37BD465DF8047B7047CF
:10456000F440030880B582B000AF78607868FFF748
:10457000E9FF042178682BF078FB7B681846083740
:10458000BD4680BD80B582B000AF78607B681B6897
:1045900020331B68786898477B68012283F87C2069
:1045A00000BF0837BD4680BD80B400AF0B4B1B6811
:1045B00093F85830002B08D0084B1B68DB6C002B9D
:1045C00003D0064B1B68DB6C02E0044B1B689B6846
:1045D0001846BD465DF8047B704700BFDC15022419
:1045E00080B483B000AF78607B6893F86B30184676
:1045F0000C37BD465DF8047B704780B483B000AFD4
:1046000078607B6893F86A300133DAB27B6883F8AC
:104610006A207B68002283F87C2000BF0C37BD46EF
:104620005DF8047B704780B483B000AF78607B682E
:10463000DB6C18460C37BD465DF8047B7047000004
:1046400080B582B000AF7860054A7B681A607B68ED
:104650001846FFF723FE7B6818460837BD4680BD25
:104660003441030880B582B000AF78607868FFF706
:10467000E7FF282178682BF0F8FA7B68184608379E
:10468000BD4680BD80B582B000AF78603960084A11
:104690007B681A607B6804331846FEF701F83968B6
:1046A000786800F027F87B6818460837BD4680BD5B
:1046B000F43F030880B483B000AF7860044A7B689D
:1046C0001A607B6818460C37BD465DF8047B70475E
:1046D000F43F030880B582B000AF78607868FFF7D8
:1046E000E9FF082178682BF0C0FA7B681846083784
:1046F000BD4680BD80B483B000AF786039607B6810
:104700003A685A6000BF0C37BD465DF8047B7047BD
:1047100080B483B000AF7860064A7B681A607B681B
:1047200000229A807B6818460C37BD465DF8047BF2
:10473000704700BFD43F030880B483B000AF7860F7
:10474000044A7B681A607B6818460C37BD465DF8E2
:10475000047B7047D43F030880B582B000AF786017
:104760007868FFF7E9FF082178682BF07EFA7B680C
:1047700018460837BD4680BD80B483B000AF78606E
:10478000002318460C37BD465DF8047B704780B4A3
:1047900083B000AF786039603B68B3F904207B6870
:1047A0009A80012318460C37BD465DF8047B70479C
:1047B00080B483B000AF786000BF0C37BD465DF8B1
:1047C000047B704780B582B000AF78607B68184684
:1047D000FFF79EFF144A7B681A607B6800221A81EB
:1047E0007B6864225A817B680022DA607B68002241
:1047F0001A747B6800225A747B6800229A747B6862
:104800004FF000025A617B684FF000029A617B68AA
:104810004FF00002DA617B684FF000021A627B6899
:1048200018460837BD4680BDB43F030880B582B046
:1048300000AF7860054A7B681A607B681846FFF70E
:104840007BFF7B6818460837BD4680BDB43F030830
:1048500080B582B000AF78607868FFF7E7FF242169
:1048600078682BF002FA7B6818460837BD4680BD91
:1048700080B483B000AF78600B46FB707B68FA7839
:1048800083F8262000BF0C37BD465DF8047B7047D7
:1048900080B483B000AF78607B6893F82630184608
:1048A0000C37BD465DF8047B704790B585B002AF0C
:1048B000786039603B681846FFF72EFD03461C46BA
:1048C0003B681846FFF735FD034600932346002258
:1048D00000217868FFF7C2FC78680C37BD4690BDB0
:1048E00080B582B000AF786039607868FEF7EEFC82
:1048F00078680837BD4680BD80B584B000AF786069
:104900007B681846FFF704FF264A7B681A6001237C
:10491000FB73FFF749FE03461A682C3212681846EB
:10492000904703461A46FB7B93420CBF01230023AA
:10493000BB73FCF737FA03461846FFF774FE0346CD
:10494000002B14BF01230023DBB2002B1BD0FCF78C
:1049500029FA03461846FFF766FE03461A682C320A
:1049600012681846904703461A46FB7B93420CBFD9
:1049700001230023DAB2BB7B1343DBB2002B14BF4D
:1049800001230023BB73BB7B002B05D1064B074AD9
:10499000272107482BF0E0FC7B6818461037BD46FE
:1049A00080BD00BF943F0308D41B0308341C0308D8
:1049B000701C030880B582B000AF7860054A7B6840
:1049C0001A607B681846FFF7B7FE7B681846083701
:1049D000BD4680BD943F030880B582B000AF7860CB
:1049E0007868FFF7E7FF082178682BF03EF97B68CD
:1049F00018460837BD4680BD80B582B000AF7860EC
:104A000039607B681846FFF777FF7B6808333968A1
:104A10001846FFF737FE054A7B681A60044A7B6830
:104A20009A607B6818460837BD4680BDEC4F030886
:104A30001050030880B483B000AF78600B46FB7061
:104A40007B68FA781A7700BF0C37BD465DF8047BA7
:104A5000704780B483B000AF786087ED000A7B6850
:104A60003A681A6200BF0C37BD465DF8047B704798
:104A700080B483B000AF78600B46FB707B68FA7837
:104A800083F8242000BF0C37BD465DF8047B7047D7
:104A900080B483B000AF78600B46FB707B68FA7817
:104AA00083F8252000BF0C37BD465DF8047B7047B6
:104AB00080B483B000AF78603960012318460C37AA
:104AC000BD465DF8047B704780B483B000AF78606A
:104AD0007B68983318460C37BD465DF8047B7047F9
:104AE00080B483B000AF78607B688C3318460C3795
:104AF000BD465DF8047B704780B483B000AF78603A
:104B00007B68843318460C37BD465DF8047B7047DC
:104B100080B483B000AF7860044A7B681A607B6819
:104B200018460C37BD465DF8047B7047903E03087D
:104B300080B582B000AF78607868FFF7E9FF0421A4
:104B400078682BF092F87B6818460837BD4680BD20
:104B500080B483B000AF786039607B683A685A648B
:104B600000BF0C37BD465DF8047B704780B483B04E
:104B700000AF786039607B683A681A6300BF0C3711
:104B8000BD465DF8047B704780B485B000AFF86027
:104B9000084611461A460346FB720B463B811346F4
:104BA000FB80FB68FA7A83F83420FB683A89DA865E
:104BB000FB68FA881A8700BF1437BD465DF8047B8E
:104BC0007047000080B483B000AF0346FB80B7F9A4
:104BD0000630002B0BDBFB8803F01F020749B7F9F7
:104BE00006305B09012000FA02F241F8232000BFE1
:104BF0000C37BD465DF8047B704700BF00E100E064
:104C000080B483B000AF0346FB80B7F90630002BB9
:104C100012DBFB8803F01F020A49B7F906305B0973
:104C2000012000FA02F2203341F82320BFF34F8F16
:104C300000BFBFF36F8F00BF00BF0C37BD465DF8EC
:104C4000047B704700E100E080B483B000AF03460E
:104C50003960FB80B7F90630002B0ADB3B68DAB21B
:104C60000C49B7F906301201D2B20B4483F8002385
:104C70000AE03B68DAB20849FB8803F00F03043B03
:104C80001201D2B20B441A7600BF0C37BD465DF854
:104C9000047B704700E100E000ED00E080B483B0E9
:104CA00000AF7860044A7B681A607B6818460C374E
:104CB000BD465DF8047B7047F440030880B582B0C0
:104CC00000AF7860054A7B681A607B681846FFF77A
:104CD000B7FC7B6818460837BD4680BD44500308C2
:104CE00080B582B000AF78607868FFF7E7FF2C21CD
:104CF00078682AF0BAFF7B6818460837BD4680BD41
:104D000080B582B000AF78607B68184619F07AF8F9
:104D1000034A7B681A607B6818460837BD4680BD29
:104D20001C3F030880B582B000AF7860054A7B68FD
:104D30001A607B681846FFF7C1FF7B681846083782
:104D4000BD4680BD1C3F030880B582B000AF7860CF
:104D50007868FFF7E7FF2C2178682AF086FF7B68E8
:104D600018460837BD4680BD80B582B000AF786078
:104D70007B681846FFF792FF104A7B681A607B68D1
:104D800004331846FEF7A2FA7B680C331846FEF788
:104D90009DFA7B6826331846FEF798FA7B68343311
:104DA00018461DF0D0FF7B6858331846FFF7A8FF60
:104DB0007B6818460837BD4680BD00BFA04F03087A
:104DC00080B582B000AF7860084A7B681A607B6863
:104DD00058331846FFF7A6FF7B681846FFF7B2FB6B
:104DE0007B6818460837BD4680BD00BFA04F03084A
:104DF00080B582B000AF78607868FFF7E1FF84216A
:104E000078682AF032FF7B6818460837BD4680BDB7
:104E100080B582B000AF7860094A7B681A60094AA1
:104E20007B689A607B6808331846FFF743FC7B6811
:104E30001846FFF7BFFD7B6818460837BD4680BDA2
:104E4000EC4F030810500308A0F10800E0E700BF92
:104E500080B582B000AF78607868FFF7D9FF142181
:104E600078682AF002FF7B6818460837BD4680BD87
:104E7000A0F10800ECE7000080B582B000AF7860D8
:104E80007B681846FFF79EFC034A7B681A607B68C4
:104E900018460837BD4680BD2450030880B582B04F
:104EA00000AF7860054A7B681A607B681846FFF798
:104EB000BDFC7B6818460837BD4680BD24500308FA
:104EC00080B582B000AF78607868FFF7E7FF2421F3
:104ED00078682AF0CAFE7B6818460837BD4680BD50
:104EE00090B585B000AF78607B681846FFF73CFF4F
:104EF0000C4A7B681A607B6803F1840407F10C0399
:104F000000211846FFF79BF9F9682046FFF774FD6A
:104F10007B6898331846FFF7AFFF7B681846143755
:104F2000BD4690BDD03E030880B582B000AF78602A
:104F30000A4A7B681A607B6898331846FFF7AEFF11
:104F40007B6884331846FFF763FF7B681846FFF7DA
:104F500037FF7B6818460837BD4680BDD03E030842
:104F600080B582B000AF78607868FFF7DDFFBC21C4
:104F700078682AF07AFE7B6818460837BD4680BDFF
:104F800080B500AF0148FFF7CFFF80BD9C710024C2
:104F900080B500AF114B1B68BFF35B8F03F00103BB
:104FA000002B0CBF01230023DBB2002B13D00B48D6
:104FB0002AF05DFE0346002B14BF01230023DBB261
:104FC000002B08D00648FFF78BFF06482BF0E2F9CC
:104FD00002482AF058FE024B184680BD5872002441
:104FE0009C710024814F0008B0B582B000AF78609A
:104FF0007B68184616F0E3FB7D687B681B686833A6
:105000001C681CF055F9034619462846A0477868E5
:105010007B681B688C331C680B4A00230B49A04734
:105020007B685B6819460A48FFF792FD0022084931
:10503000084800F03FFA084A0849064800F05AFAC2
:1050400000BF0837BD46B0BD00FA092400000424A3
:105050000C7100245471002400FA0500000000D0F7
:1050600080B582B000AF786009215A20FFF7ECFDCF
:1050700009215820FFF7E8FD00BF0837BD4680BD75
:1050800080B582B000AF78605A20FFF79BFD5820B2
:10509000FFF798FD00BF0837BD4680BD80B582B0E0
:1050A00000AF78605A20FFF7ABFD5820FFF7A8FD4E
:1050B00000BF0837BD4680BD80B483B000AF7860C4
:1050C000114BDB689BB2C3F30A039BB2013B9AB25C
:1050D0000E4B1A800C4B1B699BB2C3F30A039BB2A5
:1050E000013B9AB20A4B1A80084B1A88064B1A6485
:1050F000054B5B6B044A43F00103536300BF0C375D
:10510000BD465DF8047B7047001000505C720024BF
:105110005E72002480B582B000AF78607B6818466C
:1051200016F034FB034618460837BD4680BD000024
:1051300080B582B000AF78607B68184616F032FB0D
:10514000074800F0EDF97B685A687B685B681B686C
:1051500010331B681046984700BF0837BD4680BD16
:105160005471002480B483B000AF7860034B9B6A15
:1051700018460C37BD465DF8047B7047841000501C
:1051800080B483B000AF78603960064A3B689362B0
:10519000054B01225A6200BF0C37BD465DF8047B07
:1051A000704700BF841000500010005080B582B0DE
:1051B00000AF786039607B683968184616F0AFFA3E
:1051C00000BF0837BD4680BD80B584B000AFF86031
:1051D000B9607A603B60F8683B687A68B96816F035
:1051E00022FC034618461037BD4680BD80B487B008
:1051F00000AF7860254B5B6903F48033002B14BF4C
:1052000001230023DBB2002B3AD0204B0022C3F84D
:105210008420BFF34F8F00BF1C4BD3F880307B61DD
:105220007B695B0BC3F30E033B617B69DB08C3F354
:105230000903FB603B695A0143F6E0731340FA68C7
:10524000920712491343C1F87432FB685A1EFA6080
:10525000002B14BF01230023DBB2002BEAD13B69F2
:105260005A1E3A61002B14BF01230023DBB2002B2E
:10527000DBD1BFF34F8F00BFBFF36F8F00BF00BF05
:1052800000BF1C37BD465DF8047B704700ED00E0B1
:1052900080B487B000AF7860254B5B6903F480333E
:1052A000002B14BF01230023DBB2002B3AD0204B8C
:1052B0000022C3F88420BFF34F8F00BF1C4BD3F8EC
:1052C00080307B617B695B0BC3F30E033B617B69C1
:1052D000DB08C3F30903FB603B695A0143F6E07343
:1052E0001340FA68920712491343C1F87432FB68FD
:1052F0005A1EFA60002B14BF01230023DBB2002BDF
:10530000EAD13B695A1E3A61002B14BF01230023E6
:10531000DBB2002BDBD1BFF34F8F00BFBFF36F8F2A
:1053200000BF00BF00BF1C37BD465DF8047B70475F
:1053300000ED00E080B582B000AF7860034800F077
:1053400034F900BF0837BD4680BD00BF547100244A
:1053500080B582B000AF7860FBF724FD0346002BD8
:105360000CBF01230023DBB2002B32D11B4B1B6C83
:105370001B4A128893420CBF01230023DBB2002B8F
:1053800017D0184B1B88194678680DF011F9FBF7F8
:1053900009FD03461846FFF730F9FDF717F9FBF74B
:1053A00001FD0346184616F099FF0020FBF7A6FB07
:1053B00010E00B4B1B88194678680DF0F9F8FBF7E5
:1053C000F1FC03461846FFF7DDF80020FBF7F4FB7D
:1053D00000E000BF0837BD4680BD00BF0010005090
:1053E0005C7200245E72002480B483B000AF7860E9
:1053F000044A7B681A607B6818460C37BD465DF826
:10540000047B7047903E0308B0B582B000AF78606F
:105410007B681846FFF7E8FF254A7B681A607B68BF
:105420000C3300241D4604E0284600F073F9013CCB
:105430002435002CF8DA7B6800221A637B6800228E
:105440005A637B6800229A637B68002283F83C20C1
:105450007B68012283F83D207B68002283F83E2090
:105460007B6800221A647B6800225A647B680833D8
:105470000422002118462BF00BFA7B680433042227
:10548000002118462BF004FA00220021012011F01F
:10549000C2FF02467B681A64002011F0AEFE02468D
:1054A0007B685A647B6818460837BD46B0BD00BFAC
:1054B0004C3E030880B584B000AFF860B9607A60F4
:1054C0007B68002B06D0084B084A40F203110848BD
:1054D0002AF042FFFA687B689B001344BA685A605E
:1054E00000BF1037BD4680BDD41C0308E81C03086C
:1054F000501E030880B485B000AFF860B9607A60D0
:10550000FB68BA681A63FB681A6BFB689A63FB68EE
:105510007A685A6300BF1437BD465DF8047B704754
:1055200080B584B000AF78600023FB601FE0FA68AC
:105530001346DB0013449B0008337A68134404339A
:10554000BB60BB685B7F002B03D1BB689B7F002BDC
:105550000AD0B968786800F015F90346002B03D02B
:10556000BB68012283F82220FB680133FB60FB68E3
:10557000002BDCD07B68012283F83D207B681B6C0C
:10558000184612F023F87B6893F83E30002B08D0C1
:105590007B685B6C184611F001FF7B68002283F882
:1055A0003E2000BF1037BD4680BDB0B58AB002AF07
:1055B00078607B681B6C4FF0FF31184611F0B4FF28
:1055C0007B685B6C4FF0FF31184611F09CFE0023A6
:1055D000FB6114E0FA691346DB0013449B000833B7
:1055E0007A6813440433FB60FB6893F82230002B85
:1055F00002D0FB680122DA77FB690133FB61FB69AA
:10560000002BE7D00023BB617BE0BA691346DB00C7
:1056100013449B0008337A68134404337B617B692D
:1056200093F82230002B69D07A68BB699B00134441
:105630005B683B617B695B69002B0CD03B691B6835
:1056400024331B687A6952691146386998477B6927
:1056500000225A611FE07B699B69002B1BD03D69CA
:105660003B691B6824331C683B691B6828331B6833
:105670003869984702467B699B6913441946284656
:10568000A0477B695A687B699B691A447B695A60A9
:105690007B6900229A613B691B6814331C687B6834
:1056A000BA69023253F822104FF4B46300934FF4F6
:1056B00088734FF4F0723869A04703461A467B6935
:1056C00083F820207B695B685A1C7B695A607B6980
:1056D00093F82030002B0AD03B691B6828331B68E5
:1056E0003869984703465A1E7B691A6002E07B6955
:1056F00001221A607B69002283F82220BB690133F2
:10570000BB61BB69002B80D07B685B6C184611F0D5
:1057100045FE4EE780B483B000AF78607B6800221E
:105720001A607B6800225A607B6800229A607B685E
:105730000022DA607B6800221A617B6800225A61CD
:105740007B6800229A617B6800221A777B680022BE
:105750005A777B6800229A777B680022DA777B6829
:10576000002283F820207B68012283F821207B68B7
:10577000002283F822207B6818460C37BD465DF86E
:10578000047B704780B483B000AF786039603B68B9
:105790009B683A68D26803FB02F23B681B69396870
:1057A000496801FB03F39A4222D37B6893F83C30AB
:1057B000002B1BD03B689B683A68D26803FB02F25F
:1057C0003B681B693968496801FB03F3D21A3B68DF
:1057D0001B69B2FBF3F23B689A613B689B69002B43
:1057E00004D03B689B695A1E3B689A61012300E024
:1057F000002318460C37BD465DF8047B7047000057
:1058000080B582B000AF7860054A7B681A607B681B
:105810001846FFF77DF97B6818460837BD4680BDFE
:105820004C3E030880B582B000AF78607868FFF71F
:10583000E7FF482178682AF018FA7B68184608378D
:10584000BD4680BD80B500AF0348FBF7E5FD0348CA
:10585000FFF7DAFD00BF80BD0C71002454710024F5
:1058600080B500AF0348FFF7CBFF0348FCF726FEE7
:1058700000BF80BD547100240C71002480B584B039
:1058800000AF786039601F4BFB60786800F092FAD7
:10589000B8607968BA681346DB0013449B000B4478
:1058A000283301221A707B689A6B164B13447A686E
:1058B000116B7A68526B0A44934205D9124B134A12
:1058C000522113482AF048FD7B68996B7B68BA68BF
:1058D000023243F822107B689A6B0A4B13447A68B1
:1058E00093634FF488734FF4F07201213868FFF727
:1058F0004BF900213868FFF739F9BB6818461037B3
:10590000BD4680BD00FA0500941E0308D01E0308A2
:10591000501E030880B584B000AF786039607B68A2
:105920005B6C4FF0FF31184611F0EDFC7B685B6C4F
:10593000184611F033FD79683A681346DB001344CA
:105940009B000B44283300221A700023FB730023B2
:10595000BB6013E07968BA681346DB0013449B0010
:105960000B4428331A78FB7B1343DBB2002B14BFA4
:1059700001230023FB73BB680133BB60BB68002BB2
:10598000E8D0FB7B002B03D17B681A6B7B689A63A2
:1059900000BF1037BD4680BD80B586B000AFF8604F
:1059A000B9607A603B60BB68002B05D00F4B104A92
:1059B000822110482AF0D0FCBA681346DB00134459
:1059C0009B000833FA68134404337B617B6900222F
:1059D0005A607B6900229A607B697A681A617B69E8
:1059E0003A68DA6000BF1837BD4680BD74200308EE
:1059F00088200308501E030880B586B000AFF86009
:105A0000B9607A60BB68002B05D0294B294AD021A8
:105A100029482AF0A1FCBA681346DB0013449B0016
:105A20000833FA68134404337B617B695B7F002B86
:105A30000BD0FBF7B7F903461846FEF7D1FD024637
:105A40007B699B681A447B699A607B69DB7F002BCA
:105A500029D0FB68BA68023253F8223019467868B8
:105A6000FFF784F87A687B681B6814331B6810465C
:105A700098477B690022DA777B6993F8203083F0BE
:105A80000103DBB2002B0AD07B6993F8213083F04D
:105A90000103DBB2002B02D07B6900225A777B69BD
:105AA00093F8203000E0012318461837BD4680BD2A
:105AB0007420030844220308501E030880B584B0F4
:105AC00000AFF860B9607A603B60FB6893F83D30E6
:105AD000002B0ED0FB685B6C4FF0FF31184611F0C5
